{
  "contractName": "wUTILTokenSale",
  "abi": [
    {
      "constant": true,
      "inputs": [],
      "name": "minimumInvestment",
      "outputs": [
        {
          "name": "",
          "type": "uint256"
        }
      ],
      "payable": false,
      "stateMutability": "view",
      "type": "function"
    },
    {
      "constant": true,
      "inputs": [],
      "name": "tokensSold",
      "outputs": [
        {
          "name": "",
          "type": "uint256"
        }
      ],
      "payable": false,
      "stateMutability": "view",
      "type": "function"
    },
    {
      "constant": true,
      "inputs": [],
      "name": "tokenContract",
      "outputs": [
        {
          "name": "",
          "type": "address"
        }
      ],
      "payable": false,
      "stateMutability": "view",
      "type": "function"
    },
    {
      "constant": true,
      "inputs": [],
      "name": "tokenPrice",
      "outputs": [
        {
          "name": "",
          "type": "uint256"
        }
      ],
      "payable": false,
      "stateMutability": "view",
      "type": "function"
    },
    {
      "inputs": [
        {
          "name": "_tokenContract",
          "type": "address"
        },
        {
          "name": "_tokenPrice",
          "type": "uint256"
        },
        {
          "name": "_minInvestment",
          "type": "uint256"
        }
      ],
      "payable": false,
      "stateMutability": "nonpayable",
      "type": "constructor"
    },
    {
      "anonymous": false,
      "inputs": [
        {
          "indexed": false,
          "name": "_buyer",
          "type": "address"
        },
        {
          "indexed": false,
          "name": "_amount",
          "type": "uint256"
        }
      ],
      "name": "Sell",
      "type": "event"
    },
    {
      "constant": false,
      "inputs": [
        {
          "name": "_numberOfTokens",
          "type": "uint256"
        }
      ],
      "name": "buyTokens",
      "outputs": [],
      "payable": true,
      "stateMutability": "payable",
      "type": "function"
    },
    {
      "constant": false,
      "inputs": [],
      "name": "endSale",
      "outputs": [],
      "payable": true,
      "stateMutability": "payable",
      "type": "function"
    },
    {
      "constant": false,
      "inputs": [],
      "name": "withdraw",
      "outputs": [],
      "payable": true,
      "stateMutability": "payable",
      "type": "function"
    },
    {
      "constant": false,
      "inputs": [
        {
          "name": "account",
          "type": "address"
        }
      ],
      "name": "wihtdrawToAddress",
      "outputs": [],
      "payable": true,
      "stateMutability": "payable",
      "type": "function"
    },
    {
      "constant": false,
      "inputs": [
        {
          "name": "_newPrice",
          "type": "uint256"
        }
      ],
      "name": "setTokenPrice",
      "outputs": [],
      "payable": false,
      "stateMutability": "nonpayable",
      "type": "function"
    },
    {
      "constant": false,
      "inputs": [
        {
          "name": "_newPrice",
          "type": "uint256"
        }
      ],
      "name": "setMinimumInvestment",
      "outputs": [],
      "payable": false,
      "stateMutability": "nonpayable",
      "type": "function"
    },
    {
      "constant": true,
      "inputs": [],
      "name": "getPrice",
      "outputs": [
        {
          "name": "",
          "type": "uint256"
        }
      ],
      "payable": false,
      "stateMutability": "view",
      "type": "function"
    }
  ],
  "bytecode": "0x608060405234801561001057600080fd5b50604051606080610fb3833981018060405281019080805190602001909291908051906020019092919080519060200190929190505050336000806101000a81548173ffffffffffffffffffffffffffffffffffffffff021916908373ffffffffffffffffffffffffffffffffffffffff16021790555082600160006101000a81548173ffffffffffffffffffffffffffffffffffffffff021916908373ffffffffffffffffffffffffffffffffffffffff1602179055508160028190555080600481905550505050610ecb806100e86000396000f3006080604052600436106100af576000357c0100000000000000000000000000000000000000000000000000000000900463ffffffff1680632b925b25146100b45780633610724e146100df578063380d831b146100ff5780633ccfd60b1461010957806345f826da14610113578063518ab2a81461014057806355a373d61461016b5780636a61e5fc146101c25780637ff9b596146101ef57806398d5fdca1461021a578063be95eb9814610245575b600080fd5b3480156100c057600080fd5b506100c961027b565b6040518082815260200191505060405180910390f35b6100fd60048036038101908080359060200190929190505050610281565b005b6101076107d0565b005b610111610acf565b005b34801561011f57600080fd5b5061013e60048036038101908080359060200190929190505050610bab565b005b34801561014c57600080fd5b50610155610c10565b6040518082815260200191505060405180910390f35b34801561017757600080fd5b50610180610c16565b604051808273ffffffffffffffffffffffffffffffffffffffff1673ffffffffffffffffffffffffffffffffffffffff16815260200191505060405180910390f35b3480156101ce57600080fd5b506101ed60048036038101908080359060200190929190505050610c3c565b005b3480156101fb57600080fd5b50610204610ca1565b6040518082815260200191505060405180910390f35b34801561022657600080fd5b5061022f610ca7565b6040518082815260200191505060405180910390f35b610279600480360381019080803573ffffffffffffffffffffffffffffffffffffffff169060200190929190505050610d98565b005b60045481565b61035681610351600160009054906101000a900473ffffffffffffffffffffffffffffffffffffffff1673ffffffffffffffffffffffffffffffffffffffff1663313ce5676040518163ffffffff167c0100000000000000000000000000000000000000000000000000000000028152600401602060405180830381600087803b15801561030e57600080fd5b505af1158015610322573d6000803e3d6000fd5b505050506040513d602081101561033857600080fd5b8101908080519060200190929190505050600254610e54565b610e6f565b34101515156103cd576040517f08c379a000000000000000000000000000000000000000000000000000000000815260040180806020018281038252601a8152602001807f506c65617365207472616e73666572206d6f7265204d4154494300000000000081525060200191505060405180910390fd5b6004546103d8610ca7565b600160009054906101000a900473ffffffffffffffffffffffffffffffffffffffff1673ffffffffffffffffffffffffffffffffffffffff1663313ce5676040518163ffffffff167c0100000000000000000000000000000000000000000000000000000000028152600401602060405180830381600087803b15801561045e57600080fd5b505af1158015610472573d6000803e3d6000fd5b505050506040513d602081101561048857600080fd5b8101908080519060200190929190505050348115156104a357fe5b040210151515610541576040517f08c379a000000000000000000000000000000000000000000000000000000000815260040180806020018281038252602f8152602001807f546865207061796d656e74206973206c657373207468616e20746865206d696e81526020017f696d756d20696e766573746d65742e000000000000000000000000000000000081525060400191505060405180910390fd5b80600160009054906101000a900473ffffffffffffffffffffffffffffffffffffffff1673ffffffffffffffffffffffffffffffffffffffff166327e235e3306040518263ffffffff167c0100000000000000000000000000000000000000000000000000000000028152600401808273ffffffffffffffffffffffffffffffffffffffff1673ffffffffffffffffffffffffffffffffffffffff168152602001915050602060405180830381600087803b1580156105ff57600080fd5b505af1158015610613573d6000803e3d6000fd5b505050506040513d602081101561062957600080fd5b81019080805190602001909291905050501015151561064757600080fd5b600160009054906101000a900473ffffffffffffffffffffffffffffffffffffffff1673ffffffffffffffffffffffffffffffffffffffff1663a9059cbb33836040518363ffffffff167c0100000000000000000000000000000000000000000000000000000000028152600401808373ffffffffffffffffffffffffffffffffffffffff1673ffffffffffffffffffffffffffffffffffffffff16815260200182815260200192505050602060405180830381600087803b15801561070c57600080fd5b505af1158015610720573d6000803e3d6000fd5b505050506040513d602081101561073657600080fd5b8101908080519060200190929190505050151561075257600080fd5b806003600082825401925050819055507f5e5e995ce3133561afceaa51a9a154d5db228cd7525d34df5185582c18d3df093382604051808373ffffffffffffffffffffffffffffffffffffffff1673ffffffffffffffffffffffffffffffffffffffff1681526020018281526020019250505060405180910390a150565b6000809054906101000a900473ffffffffffffffffffffffffffffffffffffffff1673ffffffffffffffffffffffffffffffffffffffff163373ffffffffffffffffffffffffffffffffffffffff1614151561082b57600080fd5b600160009054906101000a900473ffffffffffffffffffffffffffffffffffffffff1673ffffffffffffffffffffffffffffffffffffffff1663a9059cbb6000809054906101000a900473ffffffffffffffffffffffffffffffffffffffff16600160009054906101000a900473ffffffffffffffffffffffffffffffffffffffff1673ffffffffffffffffffffffffffffffffffffffff166327e235e3306040518263ffffffff167c0100000000000000000000000000000000000000000000000000000000028152600401808273ffffffffffffffffffffffffffffffffffffffff1673ffffffffffffffffffffffffffffffffffffffff168152602001915050602060405180830381600087803b15801561094857600080fd5b505af115801561095c573d6000803e3d6000fd5b505050506040513d602081101561097257600080fd5b81019080805190602001909291905050506040518363ffffffff167c0100000000000000000000000000000000000000000000000000000000028152600401808373ffffffffffffffffffffffffffffffffffffffff1673ffffffffffffffffffffffffffffffffffffffff16815260200182815260200192505050602060405180830381600087803b158015610a0857600080fd5b505af1158015610a1c573d6000803e3d6000fd5b505050506040513d6020811015610a3257600080fd5b81019080805190602001909291905050501515610a4e57600080fd5b6000809054906101000a900473ffffffffffffffffffffffffffffffffffffffff1673ffffffffffffffffffffffffffffffffffffffff166108fc3073ffffffffffffffffffffffffffffffffffffffff16319081150290604051600060405180830381858888f19350505050158015610acc573d6000803e3d6000fd5b50565b6000809054906101000a900473ffffffffffffffffffffffffffffffffffffffff1673ffffffffffffffffffffffffffffffffffffffff163373ffffffffffffffffffffffffffffffffffffffff16141515610b2a57600080fd5b6000809054906101000a900473ffffffffffffffffffffffffffffffffffffffff1673ffffffffffffffffffffffffffffffffffffffff166108fc3073ffffffffffffffffffffffffffffffffffffffff16319081150290604051600060405180830381858888f19350505050158015610ba8573d6000803e3d6000fd5b50565b6000809054906101000a900473ffffffffffffffffffffffffffffffffffffffff1673ffffffffffffffffffffffffffffffffffffffff163373ffffffffffffffffffffffffffffffffffffffff16141515610c0657600080fd5b8060048190555050565b60035481565b600160009054906101000a900473ffffffffffffffffffffffffffffffffffffffff1681565b6000809054906101000a900473ffffffffffffffffffffffffffffffffffffffff1673ffffffffffffffffffffffffffffffffffffffff163373ffffffffffffffffffffffffffffffffffffffff16141515610c9757600080fd5b8060028190555050565b60025481565b600080600073d0d5e3db44de05e9f294bb0a3beeaf030de24ada91508173ffffffffffffffffffffffffffffffffffffffff1663feaf968c6040518163ffffffff167c010000000000000000000000000000000000000000000000000000000002815260040160a060405180830381600087803b158015610d2757600080fd5b505af1158015610d3b573d6000803e3d6000fd5b505050506040513d60a0811015610d5157600080fd5b810190808051906020019092919080519060200190929190805190602001909291908051906020019092919080519060200190929190505050505050915050809250505090565b6000809054906101000a900473ffffffffffffffffffffffffffffffffffffffff1673ffffffffffffffffffffffffffffffffffffffff163373ffffffffffffffffffffffffffffffffffffffff16141515610df357600080fd5b8073ffffffffffffffffffffffffffffffffffffffff166108fc3073ffffffffffffffffffffffffffffffffffffffff16319081150290604051600060405180830381858888f19350505050158015610e50573d6000803e3d6000fd5b5050565b6000808284811515610e6257fe5b0490508091505092915050565b600080821480610e8e57508282838502925082811515610e8b57fe5b04145b1515610e9957600080fd5b929150505600a165627a7a72305820981f776e14759737def53effdf6862b1ab72e6aac63a36ed9fd6c463ae8730d50029",
  "source": "pragma solidity ^0.4.2;\r\n\r\nimport \"./wUTILToken.sol\";\r\n\r\ninterface AggregatorV3Interface {\r\n    function decimals() external view returns (uint8);\r\n\r\n    function description() external view returns (string memory);\r\n\r\n    function version() external view returns (uint256);\r\n\r\n    // getRoundData and latestRoundData should both raise \"No data present\"\r\n    // if they do not have data to report, instead of returning unset values\r\n    // which could be misinterpreted as actual reported values.\r\n    function getRoundData(uint80 _roundId)\r\n        external\r\n        view\r\n        returns (\r\n            uint80 roundId,\r\n            int256 answer,\r\n            uint256 startedAt,\r\n            uint256 updatedAt,\r\n            uint80 answeredInRound\r\n        );\r\n\r\n    function latestRoundData()\r\n        external\r\n        view\r\n        returns (\r\n            uint80 roundId,\r\n            int256 answer,\r\n            uint256 startedAt,\r\n            uint256 updatedAt,\r\n            uint80 answeredInRound\r\n        );\r\n}\r\n\r\ncontract wUTILTokenSale {\r\n    address admin;\r\n    wUTILToken public tokenContract;\r\n    uint256 public tokenPrice; //in USD with 8 decimals. Defines token price of 1 * 10^18 tokens\r\n    uint256 public tokensSold; //keeps track of tokens sold\r\n    uint256 public minimumInvestment; //in USD with 8 decimals. Defines minimum amount of tokens that an investor can buy\r\n\r\n    event Sell(address _buyer, uint256 _amount);\r\n\r\n    modifier onlyAdmin() {\r\n        require(msg.sender == admin);\r\n        _;\r\n    }\r\n\r\n    constructor(\r\n        wUTILToken _tokenContract,\r\n        uint256 _tokenPrice,\r\n        uint256 _minInvestment\r\n    ) public {\r\n        admin = msg.sender;\r\n        tokenContract = _tokenContract;\r\n        tokenPrice = _tokenPrice;\r\n        minimumInvestment = _minInvestment;\r\n    }\r\n\r\n    function multiply(uint256 x, uint256 y) internal pure returns (uint256 z) {\r\n        require(y == 0 || (z = x * y) / y == x);\r\n    }\r\n\r\n    function div(uint256 a, uint256 b) internal pure returns (uint256) {\r\n        // assert(b > 0); // Solidity automatically throws when dividing by 0\r\n        uint256 c = a / b;\r\n        // assert(a == b * c + a % b); // There is no case in which this doesn't hold\r\n        return c;\r\n    }\r\n\r\n    function buyTokens(uint256 _numberOfTokens) public payable {\r\n        require(\r\n            msg.value >=\r\n                multiply(\r\n                    _numberOfTokens,\r\n                    div(tokenContract.decimals(), tokenPrice)\r\n                ),\r\n            \"Please transfer more MATIC\"\r\n        );\r\n        require(\r\n            (msg.value / tokenContract.decimals()) * getPrice() >=\r\n                minimumInvestment,\r\n            \"The payment is less than the minimum investmet.\"\r\n        );\r\n        require(tokenContract.balances(this) >= _numberOfTokens);\r\n        require(tokenContract.transfer(msg.sender, _numberOfTokens));\r\n\r\n        tokensSold += _numberOfTokens;\r\n\r\n        emit Sell(msg.sender, _numberOfTokens);\r\n    }\r\n\r\n    function endSale() public payable {\r\n        require(msg.sender == admin);\r\n        require(tokenContract.transfer(admin, tokenContract.balances(this)));\r\n        admin.transfer(address(this).balance);\r\n    }\r\n\r\n    function withdraw() public payable onlyAdmin {\r\n        admin.transfer(address(this).balance);\r\n    }\r\n\r\n    function wihtdrawToAddress(address account) public payable onlyAdmin {\r\n        account.transfer(address(this).balance);\r\n    }\r\n\r\n    function setTokenPrice(uint256 _newPrice) public onlyAdmin {\r\n        tokenPrice = _newPrice;\r\n    }\r\n\r\n    function setMinimumInvestment(uint256 _newPrice) public onlyAdmin {\r\n        minimumInvestment = _newPrice;\r\n    }\r\n\r\n    //get price of MATIc in USD with 8 decimals\r\n    function getPrice() public view returns (uint256) {\r\n        AggregatorV3Interface priceFeed = AggregatorV3Interface(\r\n            0xd0D5e3DB44DE05E9F294BB0a3bEEaF030DE24Ada\r\n        );\r\n        (, int256 answer, , , ) = priceFeed.latestRoundData();\r\n        return uint256(answer);\r\n    }\r\n}\r\n",
  "sourcePath": "C:\\Users\\munim\\Desktop\\Fiverr\\dapp\\contracts\\wUTILTokenSale.sol",
  "compiler": {
    "name": "solc",
    "version": "0.4.24+commit.e67f0147.Emscripten.clang"
  },
  "schemaVersion": "3.4.4",
  "updatedAt": "2022-02-18T06:26:45.949Z",
  "devdoc": {
    "methods": {}
  },
  "userdoc": {
    "methods": {}
  }
}